:08000000803102288731EF2F47
:100F8200053420000C1CC62FC72FCA2F22000C15B7
:100F9200CC2F22000C1120008C1CD02FD12FD42F4B
:100FA20022008C15D62F22008C11080023000C1071
:100FB2008C100D1021000C148C140C118C110D14BA
:100FC2008D138F0122000C108C100D148D138F01C4
:100FD2008731C2278731E92F803102288731C12723
:100FE2008731FA00F001F101F201F301F401F50198
:0E0FF200F601F701F801F90120008731D72F31
:020000040001F9
:04000E00E239FF1EB6
:00000001FF
